:03000000020006F5
:09005F00750A00755D0002000342
:03000300020206F0
:20006800AF82C28EE589540F4420F5894387808F8B8F8DD28E75985222AF82209F0D209E28
:200088000A7582FFC007120068D007BF0A0810990280FB75990D10990280FB8F9922209FFF
:2000A80009209E067582FF12006810980280FB85998222AD82AE83AFF08D828E838FF01264
:2000C8000A51FC60188C820DBD00010EC007C006C005120081D005D006D00780DC22AE824D
:2000E800AF83EE4F60071EBEFF011F80F522AE82AF83EE4F6015900070C007C0061200E6F7
:20010800D006D0071EBEFF011F80E722AF82EF600D9003E8C0071200F6D0071F80F022AD9A
:2001280082AE83AFF07564BC75650A7566808D828E838FF01208B685825E85835F85F06081
:200148007C00BC0F0040030201F1E55E455F70030201F1EC75F005A4FAABF02471F582EB45
:20016800340AF583E493F8A3E493F9A3E493FF855E67855F68856069888289838FF0C004E9
:20018800C003C0021209F8E5828583F0D002D003D00445F0704FEA2471FAEB340AFB8A824A
:2001A8008B83A3A3A3E493FEA3E493FF7564BC75650A75668090000075F000C007C006124A
:2001C80008B6AA82AB83ADF0D006D007C007C0061201DD800BC006C0078A828B838DF02267
:2001E800D006D007220C02014A7582FF227582FF120068C287C2B775800053B00B2212014D
:20020800F5900ABE75F0801200BB900AF975F0801200BB3098FD1200A6858208C29885081F
:2002280082120081740DB50802800A740AB5080280030202F875820D12008175820A120071
:2002480081E509240BF8760075090090000B75F040120127E582F55C7009900B5175F08090
:200268001200BB75678475680B75698090000B75F0401209F8E5828583F045F07010E55D5A
:20028800700C755D01900B8A75F0801200BBE55D700302021B7567FF75680B7569809000AB
:2002A8000B75F0401209F8E5828583F045F07014900C0475F0801200BB900C2E75F0801248
:2002C80000BB802075675975680C75698090000B75F0401209F8E5828583F045F07005F5EE
:2002E8005D02021B900C5E75F0801200BB02021B747FB50805150902021BE509240BF8A602
:200308000874AF2509500302021B050902021BAD82AE83AFF0ED4E604975676175680C755F
:2003280069808D828E838FF0C007C006C0051209F8E5828583F0D005D006D00745F070033F
:200348007580FF75676675680C7569808D828E838FF01209F8E5828583F045F0700CF580E1
:200368008008E55D60047582002275820122AD82AE83AFF0ED4E604A75676175680C75692C
:20038800808D828E838FF0C007C006C0051209F8E5828583F0D005D006D00745F070034305
:2003A800B0F475676675680C7569808D828E838FF01209F8E5828583F045F0700D53B00B37
:2003C8008008E55D60047582002275820122AD82AE83AFF0ED4E604A75676175680C7569CC
:2003E800808D828E838FF0C007C006C0051209F8E5828583F0D005D006D00745F0700343A5
:20040800800175676675680C7569808D828E838FF01209F8E5828583F045F0700D5380FE36
:200428008008E55D60047582002275820122AD82AE83AFF0ED4E604A75676175680C75696B
:20044800808D828E838FF0C007C006C0051209F8E5828583F0D005D006D00745F070034344
:20046800800275676675680C7569808D828E838FF01209F8E5828583F045F0700D5380FDD6
:200488008008E55D60047582002275820122AD82AE83AFF0ED4E604A75676175680C75690B
:2004A800808D828E838FF0C007C006C0051209F8E5828583F0D005D006D00745F0700343E4
:2004C800800475676675680C7569808D828E838FF01209F8E5828583F045F0700D5380FB76
:2004E8008008E55D60047582002275820122AD82AE83AFF0ED4E604A75676175680C7569AB
:20050800808D828E838FF0C007C006C0051209F8E5828583F0D005D006D00745F070034383
:20052800800875676675680C7569808D828E838FF01209F8E5828583F045F0700D5380F715
:200548008008E55D60047582002275820122AD82AE83AFF0ED4E604A75676175680C75694A
:20056800808D828E838FF0C007C006C0051209F8E5828583F0D005D006D00745F070034323
:20058800801075676675680C7569808D828E838FF01209F8E5828583F045F0700D5380EFB5
:2005A8008008E55D60047582002275820122AD82AE83AFF0ED4E604A75676175680C7569EA
:2005C800808D828E838FF0C007C006C0051209F8E5828583F0D005D006D00745F0700343C3
:2005E800802075676675680C7569808D828E838FF01209F8E5828583F045F0700D5380DF55
:200608008008E55D60047582002275820122AD82AE83AFF0ED4E604A75676175680C756989
:20062800808D828E838FF0C007C006C0051209F8E5828583F0D005D006D00745F070034362
:20064800804075676675680C7569808D828E838FF01209F8E5828583F045F0700D5380BFF4
:200668008008E55D60047582002275820122AD82AE83AFF0ED4E604A75676175680C756929
:20068800808D828E838FF0C007C006C0051209F8E5828583F0D005D006D00745F070034302
:2006A800808075676675680C7569808D828E838FF01209F8E5828583F045F0700D53807F94
:2006C8008008E55D60047582002275820122AD82AE83AFF0ED4E604A75676175680C7569C9
:2006E800808D828E838FF0C007C006C0051209F8E5828583F0D005D006D00745F0700343A2
:20070800B00475676675680C7569808D828E838FF01209F8E5828583F045F0700D53B0FBD3
:200728008008E55D60047582002275820122AD82AE83AFF0ED4E604A75676175680C756968
:20074800808D828E838FF0C007C006C0051209F8E5828583F0D005D006D00745F070034341
:20076800B01075676675680C7569808D828E838FF01209F8E5828583F045F0700D53B0EF73
:200788008008E55D60047582002275820122AD82AE83AFF0ED4E604A75676175680C756908
:2007A800808D828E838FF0C007C006C0051209F8E5828583F0D005D006D00745F0700343E1
:2007C800B02075676675680C7569808D828E838FF01209F8E5828583F045F0700D53B0DF13
:2007E8008008E55D60047582002275820122AD82AE83AFF0ED4E604A75676175680C7569A8
:20080800808D828E838FF0C007C006C0051209F8E5828583F0D005D006D00745F070034380
:20082800B04075676675680C7569808D828E838FF01209F8E5828583F045F0700D53B0BFB2
:200848008008E55D60047582002275820122AD82AE83AFF0ED4E604A75676175680C756947
:20086800808D828E838FF0C007C006C0051209F8E5828583F0D005D006D00745F070034320
:20088800B08075676675680C7569808D828E838FF01209F8E5828583F045F0700D53B07F52
:0E08A8008008E55D60047582002275820122E1
:200A71006A0C801703700C807603760C80D6037E0C803604860C8096048E0C80F604960C5F
:200A91008056059E0C80B605A60C801606AE0C807606B60C80D606BE0C803607C60C8096F4
:200AB10007CE0C80F607D60C8056083D00546F67676C652050494E2076302E3120616C70DF
:200AD10068612062792059757279204D617274796E6F762028656D61696C406C696E786F2E
:200AF1006E2E7275290A0A00D09DD0B0D0B1D0B5D180D0B8D182D0B520277368656C6C27FB
:200B11002C20D187D182D0BED0B1D18B20D0BFD0B5D180D0B5D0B9D182D0B820D0B220D161
:200B310080D0B5D0B6D0B8D0BC20D183D0BFD180D0B0D0B2D0BBD0B5D0BDD0B8D18F0A0020
:200B5100D09AD0BED0BCD0B0D0BDD0B4D0B020D181D0BED0BED0B1D189D0B8D0BBD0B020D3
:200B7100D0BED0B120D0BED188D0B8D0B1D0BAD0B521007368656C6C00D092D18B20D181CD
:200B9100D0B5D0B9D187D0B0D18120D0B220277368656C6C2720D180D0B5D0B6D0BCD0B557
:200BB1002E20D092D0B2D0B5D0B4D0B8D182D0B5202768656C70272C20D187D182D0BED01D
:200BD100B1D18B20D183D0B2D0B8D0B4D0B5D182D18C20D181D0BFD0B8D181D0BED0BA20AD
:200BF100D0BAD0BED0BCD0B0D0BDD0B40A0068656C7000202068656C70202D20D0BFD0BE89
:200C1100D0BAD0B0D0B7D0B0D182D18C20D181D0BFD180D0B0D0B2D0BAD1830A0020206521
:200C3100786974202D20D0B2D18BD0B9D182D0B820D0B8D0B720D0BED0B1D0BED0BBD0BE9A
:200C5100D187D0BAD0B80A0065786974003E200048494748004C4F570041542B5030004164
:200C7100542B50330041542B50302E300041542B50302E310041542B50302E320041542BC4
:200C910050302E330041542B50302E340041542B50302E350041542B50302E360041542BB9
:200CB10050302E370041542B50332E320041542B50332E340041542B50332E350041542B90
:0D0CD10050332E360041542B50332E370087
:2008B600AD82AE83AFF0ED4E60068D618E628F63E56145627006900000F5F022AD61AE629A
:2008D600AF638D828E838FF0120A516031AD61AE62AF638D828E838FF0120A51F5678564D2
:2008F600828565838566F01209BFAD82AE83AFF0ED4E600A0561E4B561C2056280BEAD61C5
:20091600AE62AF63AA61AB62AC638A828B838CF0120A516059AA61AB62AC638A828B838CEF
:20093600F0120A51F5678564828565838566F0C007C006C0051209BFAA82AB83D005D00604
:20095600D007EA4B601EAA61AB62AC638A828B838CF0E41209A40561B5610205628D828E15
:20097600838FF0220561E4B5619A05628096E4F561F562F5638D828E838FF0120A5160076A
:0E0996008D828E838FF02290000075F000227B
:06003500E478FFF6D8FD9F
:200013007900E94400601B7A00900CDE780175A000E493F2A308B8000205A0D9F4DAF275A9
:02003300A0FF2C
:1B09A40020F71130F6138883A88220F509F6A8837583002280FEF280F5F02252
:2009BF00AD82AE83AFF08D828E838FF0120A51FC600DECB5670280070DBD00EA0E80E78D5D
:1909DF00828E838FF0120A51B567078D828E838FF02290000075F0002285
:2009F800AD82AE83AFF0AA67AB68AC698D828E838FF0120A51F879008A828B838CF0120A78
:200A180051F56AC002C003C004AB6A7C00E8C39BF8E99CF9886B896CD004D003D002E849E6
:190A38007010E56A600C0DBD00010E0ABA00BD0B80BA856B82856C8322C3
:20003B007800E84400600A790175A000E4F309D8FC7800E84400600C7900900001E4F0A3C3
:04005B00D8FCD9FAFA
:0D00060075816C120A6DE582600302000333
:1C0A510020F71430F6148883A88220F507E6A88375830022E280F7E49322E022B4
:040A6D00758200226C
:00000001FF
